:0200000021C01D
:10000200FECFFDCFFCCFB9C2FACFF9CFF8CFF7CFF1
:10001200F6CFF5CFF4CFF3CF85C2F1CFF0CFEFCF4C
:10002200EECFEDCF626F6F74696E672E2E2E0D00CC
:100032001027E80364000A0001000010000110000C
:100042000100F894EE27ECBBE5BF8DE0A2E0ED9352
:100052008A95E9F780E8A0E6ED938A95E9F7E0E072
:10006200E3BBE4BBE5BBEFEDEDBFC0E835C2EFEFAC
:10007200EABBE7BBEFEEE1BBE2E0E3BFE5E0E6BFF0
:10008200EEBDE1E0EBBDE6E8EABDE1E4E9BFE0E0B8
:10009200EBB9E8E0EAB9E6E0E3B9E0E0E2B9E3E3CC
:1000A200E9B9E0E8E8B9089590946620D9F4992076
:1000B20051F08AD27E1610F4E0E003C08DD2E750F0
:1000C2008ED2E8BB08C090D2E71510F4EFEF02C061
:1000D20083D285D2E8BBE1E1E71519F47724E1E0A8
:1000E2006E2E1EC0992049F06FD2E71510F4EFEF83
:1000F20002C072D27FD2E8BB0AC081D275D27E160C
:1001020010F4E0E003C068D2E7507CD2E8BBE0E143
:10011200E71531F477246624E2E08E2AEEEF8E2290
:100122000895662011F574D258F469D274D2D99820
:10013200929A52D273D219F47724E1E06E2E38C02B
:1001420075D230F45CD267D2D99A73D274D230C0ED
:1001520078D220F454D278D27BD22AC080D220F432
:100162004ED280D283D224C023C052D258F447D276
:1001720079D254D231F477246624EDEF8E22E4E072
:100182008E2A16C053D220F43AD25ED254D210C074
:1001920058D230F434D23FD2D99A4BD259D208C075
:1001A2005ED230F42CD237D2D998929A15D25ED23E
:1001B200089561D2EF5FE0938000A0918000A530A6
:1001C20018F0E1E0E0938000662009F071C056D299
:1001D20019F415D259D212C05CD219F410D25DD2E0
:1001E2000DC060D229F40BD216D2D99A929806C0C9
:1001F2005DD221F404D20FD2D998929A09D2C8F4CE
:100202003DD211F457D214C044D211F453D210C0CB
:1002120049D211F44FD20CC049D251F4DDD1E85188
:10022200DED1E8BBE8B3EF3F19F4E1E06E2E7724AC
:10023200B3C0FCD198F422D211F43CD20EC029D220
:1002420011F438D20AC02ED229F4C6D1E051C7D156
:10025200E8BB03C02BD209F4D2D19EC0F2D198F4EC
:100262000DD211F427D20EC014D229F4B5D1E85020
:10027200C9D1E8BB07C016D211F4C1D103C016D24E
:1002820009F4BDD189C0EBD190F4F8D121F4A4D105
:10029200B1D1E8BB0BC0FDD111F4B1D107C002D27C
:1002A20011F4ADD103C002D209F4A9D175C074C052
:1002B200E5D129F4A4D1AFD1D998929A10C0E9D14D
:1002C20029F49DD1A8D1D99A929809C0EBD119F4F9
:1002D20096D1E3D104C0EAD111F491D1D5D198D10C
:1002E200F0F4CCD111F4E6D119C0D3D111F4E2D19A
:1002F20015C0D8D111F4DED111C0D8D179F46CD1A6
:10030200E8516DD1E8BBE8B3EF3F41F466247724AE
:10031200EBEF8E22E8E08E2A72D1CFD13DC086D19A
:1003220098F4ACD111F4C6D10EC0B3D111F4C2D13C
:100332000AC0B8D129F450D1E05151D1E8BB03C071
:10034200B5D109F45CD128C07CD198F497D111F4CD
:10035200B1D10EC09ED129F43FD1E85053D1E8BBB0
:1003620007C0A0D111F44BD103C0A0D109F447D1E9
:1003720013C075D188F482D121F42ED13BD1E8BBD0
:100382000BC087D111F43BD107C08CD111F437D106
:1003920003C08CD109F433D108959094992059F077
:1003A2002ED1D89A929A9398D998E8E07E1610F4B2
:1003B20013D15CD10AC023D1D8989298939AD99A32
:1003C200E8E07E1610F008D143D17AD1E03011F086
:1003D200992009F004C018B273D101D1E8BBA091F1
:1003E2008100A93010F0992009F405C018B268D133
:1003F200E850F5D0E8BB64D1F0E0AFE0B0E081D1E5
:10040200EA1BFB0BA72DB0E0EA17FB07D1F458D18A
:10041200EF5FE09381007724A0918100A03189F4FD
:10042200E0E0E093810049D122243324A7E5B0D053
:10043200E7EF8E22EFEB8E22E0E18E2A44D1772481
:1004420099240895D89A929A939AD99A33D1E9E144
:100452007E1608F42FD1E9E1E71508F4D0D0E2E3E3
:10046200E715D9F47724E0918200EF5FE0938200F0
:10047200A0918200A73089F4EFEE8E22EFEB8E225C
:1004820022D1BDD09698E0E0E093820016D12224DA
:10049200332466249924882477240895849B12C0E7
:1004A20012018C9A9498E1E0F0E0E215F30528F449
:1004B200E0E48E2AA22DA05D6BD022243324FDD04D
:1004C2008C9894980895F894A895E1B5E861E1BDF7
:1004D200EDE0E1BD78940895CADDF5DF8C9A949839
:1004E20087EA8A95F1F78C9894987894A6E2B0E01E
:1004F20056D0A89586FE0AC080FC08C081FC06C0C2
:1005020082FC04C083FC02C084FE01C009C0EFEB80
:100512008E22E1E08E2A969A7724CFD0A4E538D0B5
:10052200E8CFFFCF0A921A92FA926A937A938A9349
:100532009A93AA93BA93EA93FA93EFB7EA93E0E015
:10054200E2BFACDFF20131962F0180FCADDD81FC10
:10055200E8DD82FC2EDE83FC20DF84FC73DFE99180
:10056200EFBFF991E991B991A99199918991799105
:100572006991F990199009901895EA93EFB7EA9367
:10058200E0E0EDBDECBD7394E991EFBFE991189500
:10059200AA935D9BFECFE881ECB921960895BA93A8
:1005A200AA931A93E981FA813196E983FA83319702
:1005B200E4911E2FE03019F0A12FEADFF3CFAAE079
:1005C200E7DF188123960895E0E0E8BB929AD89A73
:1005D200D9989398E7E0089518B2E72D0895AFEF00
:1005E20077D0E095E12908959298D898D99A939A6C
:1005F200E7E00895AFEF74D0E095E1290895E0E0D7
:10060200E8BB0895AFEFB0E073D0E095E12908951B
:10061200E7E1E7150895D89893980895E851A1E085
:1006220057D0E129E8BBE8B3E0300895EFE0E715E1
:1006320008959298D1CFE051A1E04AD0E129E8BBD8
:100642000895E7E0E7150895D898939AD998F1CFDD
:10065200E850A0E8B0E04CD0E129E8BB0895E7E01B
:100662007E160895D89A9398D998E3CFA0E838D007
:10067200E129E8BB0895E09180000895FCDFF0E0F5
:10068200E130A0E0FA070895D89A9398D998929801
:100692000895E230A0E0FA070895D898939AD9987D
:1006A20092980895E330A0E0FA070895E430A0E0BC
:1006B200FA070895EFEFE8BB0895442455240895FE
:1006C200E09181000895D89892989398D9980895C6
:1006D200EE230E2EEA2F19F0EE0F0A94E9F7089591
:1006E200EE230E2EEA2F19F0E6950A94E9F7089503
:1006F200EE230E2EFD0121F0F695E7950A94E1F71F
:1007020008951B2EBF2FF12D1A2EAE2FE12D089525
:00000001FF
